:1000000041EF00F0F926FC0C600CDA0CF20C660CE7
:10001000B60CBE0CE00CFE0CF60CE84602EC00F050
:100020001200050E026EA00E036E032E15EF00F0F7
:10003000022E13EF00F01200E20ED76EF70ED66E0E
:1000400029EC00F031EC00F0F2A420EF00F0F29483
:10005000120001500DEC00F039EC00F011EC00F052
:10006000120000500DEC00F03DEC00F011EC00F03F
:1000700012008B6A8B828A6E12008B6A8B808A6E6A
:1000800012009268806A0F0EC16E070EB46E500E99
:10009000D36E936A8A6A826A94909492930ED56E14
:1000A000006A016A31EC00F029EC00F01CEC00F071
:1000B000002A090E006452EF00F0006A012A0A0EBD
:0A00C000016050EF00F052EF00F075
:020000040030CA
:040000000008181EBE
:020005008181F7
:060008000FC00FE00F40E5
:00000001FF
