:0400000005EF00F018
:10000A009268806A0F0EC16E070EB46E936A8A6A8E
:10001A0080500C0BE840E840006E8050030B80BC17
:10002A001EEF00F019EF00F080BA28EF00F023EF7E
:10003A0000F080BA32EF00F02DEF00F080B83BEF0D
:10004A0000F037EF00F080B844EF00F03FEF00F027
:10005A0080B84CEF00F048EF00F080B855EF00F0A0
:10006A0050EF00F000248A6E0DEF00F0005C8A6EFB
:10007A000DEF00F00002F3CF8AFF0DEF00F000143D
:10008A008A6E0DEF00F000108A6E0DEF00F0001876
:10009A008A6E0DEF00F00050E81C8A6E0DEF00F03A
:0C00AA000050E81C010F8A6E0DEF00F002
:020000040030CA
:040000000008181EBE
:020005008181F7
:060008000FC00FE00F40E5
:00000001FF
